S0180000436C6F636B4170706C69636174696F6E2E73726563AC
S113000071C000008CC000008AC0000088C00000DD
S113001086C00000DAC3000000C4000026C400004B
S11300204CC400007CC000007AC0000078C000000E
S113003059C3000074C0000072C000007DC30000FA
S11300406EC000006CC000006AC0000068C0000000
S113005066C0000064C0000062C0000060C0000010
S11300605EC000005CC000005AC0000058C0000020
S113007056C0000054C0000052C0000050C0000030
S11300804EC000004CC000004AC00000E102E7027C
S1130090ED02F302F902FF0205030B031103170338
S11300A01D03230341A042A1E045A3A4A5A64BA799
S11300B04D484FA8504354A9AA58E1ABACE2ADAEA9
S11300C0ADAFB0B161B2B3B4E365B6B7B8B9BABB5A
S11300D0BCBD6FBE7063BF79E478E5C0C1E6C2C33E
S11300E0C4C5C6C711241FBECFEFD0E1DEBFCDBF4C
S11300F011E0A0E0B1E0E0E7F9E000E00BBF02C0EE
S113010007900D92A632B107D9F721E0A6E2B1E03B
S113011001C01D92A033B207E1F7F7D327C470CF13
S113012084EA80937400E4E7F0E080818823ECF7AC
S113013090917100987F81E0983009F080E00895F3
S11301408093730084E880937400E4E7F0E0808196
S11301508823ECF790917100987F81E0983109F041
S113016080E008958093730084E880937400E4E74A
S1130170F0E080818823ECF790917100987F81E012
S1130180983209F480E0089584E880937400E4E7E9
S1130190F0E080818823ECF78091730008951F9329
S11301A0CF93DF93182FD62FC42FBADF812FC8DF48
S11301B08D2FD8DF8C2FD6DF84E980937400DF91F4
S11301C0CF911F910895CF93DF93C82FD62FA8DF27
S11301D08C2FB6DF8D2FC6DFA3DF81E08C0FB0DF5D
S11301E0D3DF94E990937400DF91CF910895EF9257
S11301F0FF920F931F93CF93DF93EC017B018A014E
S113020062E080EDE0DF888361E080EDDCDFF70110
S1130210808360E080EDD7DFF8018083888186FFEA
S113022003C08F71888302C08F738883DF91CF915D
S11302301F910F91FF90EF9008951ABA8FEF8BBB27
S1130240A99AA89A0000000089B3A89800000000A9
S11302508823BCF3A9980895A89A85E08A95F1F7B4
S11302600000A89808959FEF9ABB1BBA80FDD89A06
S1130270869580FDD99A869580FDDA9A869580FDCB
S1130280DB9A869580FDDC9A869580FDDD9A8695BD
S113029080FDDE9A869509F0DF9ADEDF1ABA1BBA72
S11302A00895CF93C82FC9DF8C2FDDDFCF91089538
S11302B0CF93C82FC2DFAA9AC03C30F0E0E4EC0F21
S11302C0F0E0EC55FF4FC4918C2FCDDFAA98CF916D
S11302D00895613009F4805C8068E3CF0895CF937A
S11302E0DF93EC01862F642FF4DF8881882329F0C3
S11302F02196DEDF89918111FCCFDF91CF910895A2
S1130300CF932FEF81EE94E0215080409040E1F7AD
S113031000C0000084B3876084BB85B3887F85BB3D
S11303208FEF8ABB1BBAC3E08BB380638BBB94DFB4
S11303308FE19EE40197F1F700C00000C150A1F7DE
S113034088E3AFDF8CE0ADDF86E0ABDF82E0A9DFDE
S113035081E0A7DFCF91089588E0A3CF08958CE0D2
S1130360A0CF08958EE09DCF08958CE09ACF089594
S1130370F8944CE251E06BE271E08AE291E037DFFD
S113038078940895CF93DF93F894CAE2D1E048813A
S113039062E080ED04DF498161E080ED00DF4A81A5
S11303A060E080EDFCDE7894DF91CF910895CF93E7
S11303B0C82F82958F70805D7BDF8C2F8F70805D5E
S11303C077DFCF910895E82FF0E0EE0FFF1FE050A4
S11303D0FF4F618180817DCF0895CF93DF93F8949F
S11303E0C4DF40E060E088E191E079DF80E0EBDFAA
S11303F0CAE2D1E08881DBDF8AE35ADF8981D7DF73
S11304008AE356DF8A81D3DF41E060E08EE191E048
S113041066DF86E0D8DF8B81CADF8AE349DF8C811F
S1130420C6DF8AE345DF8D81C2DF80912901CBDFFE
S113043080912801813009F495DF7894DF91CF9180
S1130440089581E087BB12B88FEF83B99AEA9ABF07
S113045090EF99BF97E493BF81BF9BE09EBD8BBD96
S11304608ABD86DF78940895FC019081892F829556
S11304708F709F70442361F0653021F49930E9F066
S11304809F5F15C0683099F4992371F091500FC0A3
S1130490653021F4853099F08F5F09C0683039F4F4
S11304A0882321F0815003C099E001C085E020E158
S11304B0829F900D11249083089590E0F8CF80E0FE
S11304C0F6CFFC019081892F82958F709F70442311
S11304D061F0653021F49930E9F09F5F15C0683010
S11304E099F4992371F091500FC0653021F485304F
S11304F099F08F5F09C0683039F4882321F0815066
S113050003C099E001C085E020E1829F900D112491
S11305109083089590E0F8CF80E0F6CFFC019081BD
S1130520292F22952F709F704423D1F0223061F43B
S1130530653021F49330A9F19F5F2DC0683059F5DF
S1130540992331F1915027C0653021F4993059F144
S11305509F5F21C06830F9F49923E1F091501BC0EA
S1130560653059F4213029F4943008F093E022E006
S113057012C02230D1F02F5F0EC0683061F4211117
S113058005C0943008F093E022E005C0215003C078
S113059093E001C099E080E1289F900D112490839D
S11305A0089590E0F8CF90E0F6CF20E0F4CF462F06
S11305B050E04C30510508F04BC0FA01EA5BFF4FA4
S11305C0CCC140E0682F8AE291E0A8DF41C041E05D
S11305D0682F8AE291E0A2DF3BC040E0682F8BE203
S11305E091E06FDF35C041E0682F8BE291E069DF75
S11305F02FC040E0682F8CE291E036DF29C041E053
S1130600682F8CE291E030DF23C040E0682F8DE258
S113061091E084DF1DC041E0682F8DE291E07EDF30
S113062017C040E0682F8EE291E04BDF11C041E03B
S1130630682F8EE291E045DF0BC040E0682F8FE227
S113064091E012DF05C041E0682F8FE291E00CDFFA
S113065099CE0895F8941DBC1CBC17BE7894909153
S1130660280191110DC081E0809328011092290185
S1130670F89480E187BF789480912901A4CE0895ED
S1130680863071F018F4853031F008958730B1F078
S1130690883019F108956091290185E088CF089583
S11306A0809129018B3019F41092290103C08F5FC6
S11306B0809329018091290186CE08958091290192
S11306C0811104C08BE08093290103C08150809381
S11306D029018091290177CE08956091290188E04C
S11306E066CF08951F920F920FB60F9211240BB686
S11306F00F922F933F934F935F936F937F938F93B7
S11307009F93AF93BF93EF93FF93109228012DDE35
S113071017BEFF91EF91BF91AF919F918F917F9100
S11307206F915F914F913F912F910F900BBE0F905E
S11307300FBE0F901F9018951F920F920FB60F9235
S113074011240BB60F922F933F934F935F936F93A4
S11307507F938F939F93AF93BF93EF93FF93809176
S113076026019091270101969093270180932601F9
S113077080FD02C0F1DD12C0F2DD10C080FD02C0B8
S113078028BB01C018BAE7E5F2E03197F1F700C0E1
S1130790000001968A30910589F704C080E090E05A
S11307A021E0ECCFFF91EF91BF91AF919F918F9199
S11307B07F916F915F914F913F912F910F900BBE5D
S11307C00F900FBE0F901F9018951F920F920FB6A7
S11307D00F9211240BB60F922F933F934F935F9375
S11307E06F937F938F939F93AF93BF93EF93FF93F5
S11307F085E030DFFF91EF91BF91AF919F918F9191
S11308007F916F915F914F913F912F910F900BBE0C
S11308100F900FBE0F901F9018951F920F920FB656
S11308200F9211240BB60F922F933F934F935F9324
S11308306F937F938F939F93AF93BF93EF93FF93A4
S113084086E008DFFF91EF91BF91AF919F918F9167
S11308507F916F915F914F913F912F910F900BBEBC
S11308600F900FBE0F901F9018951F920F920FB606
S11308700F9211240BB60F922F933F934F935F93D4
S11308806F937F938F939F93AF93BF93EF93FF9354
S113089087E0E0DEFF91EF91BF91AF919F918F913F
S11308A07F916F915F914F913F912F910F900BBE6C
S11308B00F900FBE0F901F9018951F920F920FB6B6
S11308C00F9211240BB60F922F933F934F935F9384
S11308D06F937F938F939F93AF93BF93EF93FF9304
S11308E088E0B8DEFF91EF91BF91AF919F918F9116
S11308F07F916F915F914F913F912F910F900BBE1C
S11309000F900FBE0F901F9018959BDDF9DC65DDED
S1130910CAE2D1E012E02CDD98818B81981310C0DB
S113092099818C8198130CC09A818D81981768F0F5
S11309308091260190912701892B39F417BF05C0B6
S1130940109227011092260117BE47DD8FE39CE920
S11309500197F1F700C00000DECFEE0FFF1F002467
S1130960001C0BBE0790F691E02D0994F894FFCF7C
S11309700600070009000A000C000D00060107012B
S113098009010A010C010D0154696D653D00416CBA
S109099061726D3D0000E0
S9030000FC
